:100000000C9463000C948B000C948B000C948B006C
:100010000C948B000C948B000C948B000C948B0034
:100020000C948B000C948B000C948B000C948B0024
:100030000C948B000C948B000C948B000C948B0014
:100040000C942B040C948B000C94A1050C948B0045
:100050000C948B000C948B000C948B000C948B00F4
:100060000C948B000C948B000000000024002700EF
:100070002A0000000000250028002B0000000000DE
:1000800023002600290004040404040404040202DA
:100090000202020203030303030301020408102007
:1000A0004080010204081020010204081020000012
:1000B0000007000201000003040600000000000029
:1000C0000000CC02EA0611241FBECFEFD8E0DEBF4D
:1000D000CDBF11E0A0E0B1E0E0E2F0E102C00590A8
:1000E0000D92A032B107D9F711E0A0E2B1E001C052
:1000F0001D92AE3CB107E1F710E0C6ECD0E004C0C1
:100100002297FE010E940A08C23CD107C9F70E944B
:1001100024040C940E080C940000FC01718360838D
:1001200053834283358324831782168281E090E0D3
:10013000938782871186108608951F93162F862F26
:1001400060E00E94E504812F61E00E9405051F9197
:1001500008951F93162F862F61E00E94E504812FDA
:1001600060E00E9405051F9108950F931F93CF93A0
:10017000DF93EC0188810E945205892BD9F78A818F
:100180000E945205182F092F88810E945205892B41
:10019000D9F3812F902FDF91CF911F910F91089567
:1001A000AF92BF92CF92DF92EF92FF920F931F9385
:1001B000CF93DF93EC01688179810E949D006A8171
:1001C0007B81CE010E949D0082E390E00E949D040D
:1001D00088810E945205892BD9F785E090E00E9422
:1001E0009D0488810E945205892BD9F3EE24FF24B7
:1001F00000E010E081E0A82EB12CC12CD12CCE0162
:100200000E94B500892B69F0D601C501002E04C0FB
:10021000880F991FAA1FBB1F0A94D2F7E82AF92A50
:100220000EC0D601C501002E04C0880F991FAA1F59
:10023000BB1F0A94D2F780959095E822F9220F5FB0
:100240001F4F08301105D9F6CE010E94B500CE012E
:100250000E94B50068817981CE010E94A900C70182
:10026000DF91CF911F910F91FF90EF90DF90CF9092
:10027000BF90AF9008951F93162F0E94D000AC013D
:1002800015FF12C028E030E061E070E0CB01022EE3
:1002900002C0880F991F0A94E2F7482B592B2F5F51
:1002A0003F4F2031310591F7CA011F9108951F93E7
:1002B000162F0E94D000AC0114FF12C028E030E0DD
:1002C00061E070E0CB01022E02C0880F991F0A94F2
:1002D000E2F7482B592B2F5F3F4F2031310591F723
:1002E000CA011F910895EF92FF920F931F93CF932E
:1002F000DF93EC018B016A817B810E949D00688104
:100300007981CE010E949D008CE291E00E949D04C3
:1003100068817981CE010E94A9008CE291E00E945F
:100320009D046A817B81CE010E94A9008AE090E051
:100330000E949D0468817981CE010E949D00888180
:100340000E945205892BD9F7FF24EE24E3946A8199
:100350007B8100FF04C0CE010E949D0003C0CE013E
:100360000E94A90088810E945205892BD9F38881B7
:100370000E945205892BD9F7802F8170E826F394CB
:1003800088E0F81619F015950795E1CF6A817B8111
:10039000EE2021F0CE010E949D0003C0CE010E94FC
:1003A000A90088810E945205892BD9F388810E9477
:1003B0005205892BD9F76A817B81CE010E949D006D
:1003C00082E390E00E949D0488810E945205892B5F
:1003D000D9F788810E945205892BD9F38A810E941E
:1003E0005205892BB1F368817981CE010E94A90061
:1003F000DF91CF911F910F91FF90EF900895EF92B1
:10040000FF920F931F938C017B016BEE70E00E94B3
:100410007301C8010E94D000C8010E94D000BC0135
:10042000F70191838083C8010E945701F7019383EC
:10043000828360817181C8010E943B01F70195832D
:100440008483C7011F910F91FF90EF900895CF9380
:10045000DF93EC018A859B85892B61F4CE0165EFE2
:1004600070E00E947301CE010E94D00081E090E014
:100470009B878A87DF91CF910895CF93DF93EC011B
:1004800088859985892B61F4CE0164EF70E00E9424
:100490007301CE010E94D00081E090E099878887A7
:1004A000DF91CF9108950F931F93CF93DF93EC01CA
:1004B0008B018C819D81029719F4CE010E94270245
:1004C000CE01B8010E947301CE010E94D0008C8140
:1004D0009D81029719F4CE010E943D028E819F8179
:1004E000892B21F084E690E00E949D04DF91CF915A
:1004F0001F910F9108950F931F938C0160EF70E08F
:100500000E94530281E090E0F801958384831F915B
:100510000F910895CF93DF93EC01688179810E9458
:100520009D006A817B81CE010E949D0064E170E0A4
:1005300080E090E00E947304CE016FEF70E00E94B3
:100540007301CE010E94D00064E170E080E090E091
:100550000E947304CE010E94D000CE010E94D00000
:1005600064E170E080E090E00E9473048C819D81E2
:10057000019721F4CE010E947B0203C0CE010E94AC
:100580003D0284E690E00E949D0481E090E09F831C
:100590008E83DF91CF91089580E291E066E070E074
:1005A00045E050E022E030E00E948D0008950F9376
:1005B0001F93182F092F8091140161E00E940505F7
:1005C00080910C0161E00E94050580910E0160E0C0
:1005D0000E9405058091100161E00E94050580914F
:1005E000120160E00E940505212F302FC9019C01F6
:1005F00097FF03C0309521953F4F220F331FB9015C
:10060000882777FD8095982F0E94730480911401AC
:1006100060E00E9405051F910F9108950F931F93AD
:10062000182F092F8091140161E00E940505809127
:100630000C0160E00E94050580910E0161E00E94BE
:1006400005058091100160E00E940505809112016E
:1006500061E00E940505212F302FC9019C0197FF01
:1006600003C0309521953F4F220F331FB9018827D2
:1006700077FD8095982F0E9473048091140160E0AB
:100680000E9405051F910F9108950F931F93182F36
:10069000092F8091140161E00E94050580910C01F1
:1006A00061E00E94050580910E0160E00E94050551
:1006B0008091100160E00E9405058091120161E0C7
:1006C0000E940505212F302FC9019C0197FF03C00F
:1006D000309521953F4F220F331FB901882777FDB1
:1006E0008095982F0E9473048091140160E00E940D
:1006F00005051F910F9108950F931F93182F092F30
:100700008BEB91E060E071E00E947A078091140128
:1007100061E00E94050580910C0160E00E940505E2
:1007200080910E0161E00E9405058091100161E059
:100730000E9405058091120160E00E940505212FAD
:10074000302FC9019C0197FF03C0309521953F4F81
:10075000220F331FB901882777FD8095982F0E94BB
:1007600073048091140160E00E9405058BEB91E019
:1007700066E071E00E947A071F910F910895DF9360
:10078000CF9300D000D0CDB7DEB780E291E0BE01BC
:100790006F5F7F4F0E94FF018B8180932C018D81C1
:1007A00080932D0187FF06C0992787FD90950E94B1
:1007B000450307C0882329F0992787FD90950E945B
:1007C0007C0380912C0187FF06C0992787FD9095B7
:1007D0000E94D70207C0882329F0992787FD9095AA
:1007E0000E940E030F900F900F900F90CF91DF910A
:1007F00008958BEB91E040E056E960E070E00E94E4
:10080000DE0580E291E00E948A0280910C0161E0A5
:100810000E94E50480910E0161E00E94E504809150
:10082000100161E00E94E5048091120161E00E94E4
:10083000E5048091140161E00E94E50480911401B7
:1008400061E00E94050508950E94AB040E94F9032F
:100850000E94BF03FDCF1F920F920FB60F9211247B
:100860002F933F938F939F93AF93BF9380913201C8
:1008700090913301A0913401B0913501309136014E
:100880000196A11DB11D232F2D5F2D3720F02D576F
:100890000196A11DB11D20933601809332019093E2
:1008A0003301A0933401B093350180912E019091D2
:1008B0002F01A0913001B09131010196A11DB11D10
:1008C00080932E0190932F01A0933001B0933101BA
:1008D000BF91AF919F918F913F912F910F900FBE3C
:1008E0000F901F901895EF92FF920F931F937B012B
:1008F0008C018FB7F894409132015091330160918F
:100900003401709135018FBF2FB7F8948091320177
:1009100090913301A0913401B09135012FBF841B18
:10092000950BA60BB70BE816F9060A071B0760F72D
:100930001F910F91FF90EF900895019759F0FC01DE
:10094000EE0FFF1FEE0FFF1F32978FB7F89431970E
:10095000F1F78FBF0895789484B5826084BD84B523
:10096000816084BD85B5826085BD85B5816085BDAA
:10097000EEE6F0E0808181608083E1E8F0E0808154
:1009800082608083808181608083E0E8F0E0808104
:1009900081608083E1EBF0E0808184608083E0EB24
:1009A000F0E0808181608083EAE7F0E0808184600C
:1009B0008083808182608083808181608083808168
:1009C000806880831092C1000895282F30E0C9010B
:1009D00086569F4FFC0194912A573F4FF90184910D
:1009E000882391F0E82FF0E0EE0FFF1FE859FF4F4A
:1009F000A591B491662329F48C91909589238C93C9
:100A000008958C91892B8C930895482F50E0CA014A
:100A100082559F4FFC012491CA0186569F4FFC01CD
:100A200094914A575F4FFA0134913323D1F1222335
:100A300031F1233021F4809180008F7705C024307C
:100A400031F4809180008F7D8093800018C0213028
:100A500019F484B58F7704C0223021F484B58F7DDA
:100A600084BD0DC0263021F48091B0008F7705C081
:100A7000273029F48091B0008F7D8093B000E32F60
:100A8000F0E0EE0FFF1FEE58FF4FA591B4916623E3
:100A900029F48C91909589238C9308958C91892BBE
:100AA0008C930895682F70E0CB0182559F4FFC0115
:100AB0002491CB0186569F4FFC0144916A577F4F8A
:100AC000FB019491992319F420E030E038C02223EF
:100AD00031F1233021F4809180008F7705C02430DC
:100AE00031F4809180008F7D8093800018C0213088
:100AF00019F484B58F7704C0223021F484B58F7D3A
:100B000084BD0DC0263021F48091B0008F7705C0E0
:100B1000273029F48091B0008F7D8093B000892F19
:100B200090E0880F991F84589F4FFC01A591B491C4
:100B30008C9120E030E0842311F021E030E0C90105
:100B400008951F920F920FB60F9211242F933F9387
:100B50004F935F936F937F938F939F93AF93BF93C5
:100B6000EF93FF934091C600E091B701F091B80177
:100B7000CF01019660E870E00E94A4079C0180917B
:100B8000B9019091BA012817390739F0E95CFE4F95
:100B900040833093B8012093B701FF91EF91BF914B
:100BA000AF919F918F917F916F915F914F913F9105
:100BB0002F910F900FBE0F901F9018955F926F921C
:100BC0007F928F929F92AF92BF92CF92DF92EF92DD
:100BD000FF920F931F93CF93DF93EC013A014B01E8
:100BE000413482E458078FE0680780E078070CF012
:100BF0007FC060E874E88EE190E0A40193010E9458
:100C0000D9072150304040405040CA01B90122E08C
:100C100030E040E050E00E94D90759016A01A60186
:100C20009501209530954095509594E0220F331F03
:100C3000441F551F9A95D1F760E074E284EF90E06D
:100C40000E94D907CA01B9012FEF30E040E050E01F
:100C50000E948507A40193010E94D907C901815010
:100C60009F4F181619061CF4522E5A9403C055248F
:100C70005394521A60E079E08DE390E0A40193016F
:100C80000E94D9072150304040405040CA01B9016C
:100C900022E030E040E050E00E94D90720953095F6
:100CA0004095509583E0220F331F441F551F8A95AE
:100CB000D1F760E074E284EF90E00E94D907CA01A6
:100CC000B9012FEF30E040E050E00E948507A40119
:100CD00093010E94D907C90181509F4F1816190628
:100CE0001CF4822F815002C081E0821B851500F523
:100CF000E885F98581E090E00A8802C0880F991F95
:100D00000A94E2F7808360E079E08DE390E0A4014B
:100D100093010E94D9072150304040405040CA0101
:100D2000B90122E030E040E050E00E94D90704C061
:100D3000E885F98510829501EC81FD813083EE8193
:100D4000FF812083EA85FB85208141E050E0CA01D4
:100D50000E8402C0880F991F0A94E2F7282B208383
:100D6000EA85FB852081CA010F8402C0880F991F84
:100D70000A94E2F7282B2083EA85FB858081088886
:100D800002C0440F551F0A94E2F7842B8083DF9141
:100D9000CF911F910F91FF90EF90DF90CF90BF9078
:100DA000AF909F908F907F906F905F900895FC011F
:100DB000A085B18521898C9190E0022E02C0959585
:100DC00087950A94E2F780FFF6CF0484F585E02D3D
:100DD000608308958AE191E09093BC018093BB0108
:100DE00087E391E09093BE018093BD0185EC90E094
:100DF0009093C0018093BF0184EC90E09093C20176
:100E00008093C10180EC90E09093C4018093C30172
:100E100081EC90E09093C6018093C50186EC90E050
:100E20009093C8018093C70184E08093C90183E057
:100E30008093CA0187E08093CB0185E08093CC0149
:100E400081E08093CD0108950F931F93CF93DF939B
:100E50008C01EB0109C02196D801ED91FC91019024
:100E6000F081E02DC801099568816623A1F7DF9123
:100E7000CF911F910F910895EF92FF920F931F93BF
:100E8000CF93DF938C017B01EA010CC0D7016D91F8
:100E90007D01D801ED91FC910190F081E02DC80118
:100EA00009952197209791F7DF91CF911F910F918D
:100EB000FF90EF900895DC01ED91FC910280F381A9
:100EC000E02D099508950F931F938C01DC01ED919E
:100ED000FC910190F081E02D6DE00995D801ED9134
:100EE000FC910190F081E02DC8016AE009951F9105
:100EF0000F9108950F931F938C010E945B07C80107
:100F00000E9463071F910F910895629FD001739F04
:100F1000F001829FE00DF11D649FE00DF11D929F95
:100F2000F00D839FF00D749FF00D659FF00D9927D4
:100F3000729FB00DE11DF91F639FB00DE11DF91FF8
:100F4000BD01CF011124089597FB092E07260AD071
:100F500077FD04D049D006D000201AF47095619531
:100F60007F4F0895F6F7909581959F4F0895A1E2E0
:100F70001A2EAA1BBB1BFD010DC0AA1FBB1FEE1F13
:100F8000FF1FA217B307E407F50720F0A21BB30B5E
:100F9000E40BF50B661F771F881F991F1A9469F7DA
:100FA00060957095809590959B01AC01BD01CF0136
:100FB000089597FB092E05260ED057FD04D0D7DFE4
:100FC0000AD0001C38F450954095309521953F4F3C
:100FD0004F4F5F4F0895F6F7909580957095619506
:100FE0007F4F8F4F9F4F0895AA1BBB1B51E107C036
:100FF000AA1FBB1FA617B70710F0A61BB70B881FA9
:10100000991F5A95A9F780959095BC01CD01089537
:10101000EE0FFF1F0590F491E02D0994F894FFCF97
:10102000426567696E0045696E64650009000A00E3
:1010300008000700020000000000D70624073C0754
:00000001FF
