:100000000C9463000C948B000C948B000C948B006C
:100010000C948B000C948B000C948B000C948B0034
:100020000C948B000C948B000C948B000C948B0024
:100030000C948B000C948B000C948B000C948B0014
:100040000C949B020C948B000C9411040C948B0068
:100050000C948B000C948B000C948B000C948B00F4
:100060000C948B000C948B000000000024002700EF
:100070002A0000000000250028002B0000000000DE
:1000800023002600290004040404040404040202DA
:100090000202020203030303030301020408102007
:1000A0004080010204081020010204081020000012
:1000B0000007000201000003040600000000000029
:1000C0000000A2015A0511241FBECFEFD8E0DEBF09
:1000D000CDBF11E0A0E0B1E0ECEAFCE002C0059089
:1000E0000D92A431B107D9F711E0A4E1B1E001C04C
:1000F0001D92A83BB107E1F710E0C6ECD0E004C0C8
:100100002297FE010E945006C23CD107C9F70E9407
:1001100094020C9454060C9400001F93162F862F03
:1001200061E00E945503812F60E00E9475031F91DA
:1001300008951F93162F862F60E00E945503812F8C
:1001400061E00E9475031F910895FF920F931F9322
:10015000CF93DF93EC01688179810E9499006A81D5
:100160007B81CE010E94990082E390E00E940D0302
:1001700088810E94C2030197D9F385E090E00E9434
:100180000D0388810E94C203892BD9F3FF2400E06C
:1001900011E088810E94C2030197D9F38A810E94ED
:1001A000C203019709F4F12A88810E94C203892BB6
:1001B000D9F30F5F083011F0110FEBCF88810E9447
:1001C000C2030197D9F388810E94C203892BD9F316
:1001D00088810E94C2030197D9F388810E94C203DB
:1001E000892BD9F368817981CE010E948D008F2DF2
:1001F000DF91CF911F910F91FF900895DF92EF92C1
:10020000FF920F931F93CF93DF93EC01D62E6A8159
:100210007B810E94990068817981CE010E949900BA
:100220008CE291E00E940D0368817981CE010E94E9
:100230008D008CE291E00E940D036A817B81CE01EA
:100240000E948D008AE090E00E940D036881798110
:10025000CE010E94990088810E94C2030197D9F3C0
:10026000FF24EE24E3940D2D10E06A817B81D0FE03
:1002700004C0CE010E94990003C0CE010E948D00EF
:1002800088810E94C203892BD9F388810E94C2030E
:100290000197D9F381E0D822ED24F39488E0F81691
:1002A00021F015950795D02EDECF6A817B81EE2057
:1002B00021F0CE010E94990003C0CE010E948D0062
:1002C00088810E94C203892BD9F388810E94C203CE
:1002D0000197D9F36A817B81CE010E94990082E364
:1002E00090E00E940D0388810E94C2030197D9F318
:1002F00088810E94C203892BD9F38A810E94C2039C
:10030000892BB1F368817981CE010E948D00DF9144
:10031000CF911F910F91FF90EF90DF9008950F9371
:100320001F938C01FC0171836083538342830E947D
:100330009900F80162817381C8010E9499001F91A0
:100340000F91089584E191E066E070E045E050E0AF
:100350000E948F0108958091080161E00E94750359
:100360008091000161E00E9475038091020160E0CC
:100370000E9475038091040161E00E9475038091E1
:10038000060160E00E94750364E670E080E090E0A2
:100390000E94E3028091080160E00E9475030895C5
:1003A0008091080161E00E9475038091000160E086
:1003B0000E9475038091020161E00E9475038091A3
:1003C000040160E00E9475038091060161E00E94D3
:1003D000750364E670E080E090E00E94E3028091A3
:1003E000080160E00E94750308958091080161E0B2
:1003F0000E9475038091000161E00E947503809165
:10040000020160E00E9475038091040160E00E9497
:1004100075038091060161E00E94750364E670E057
:1004200080E090E00E94E3028091080160E00E9479
:10043000750308958091080161E00E947503809121
:10044000000160E00E9475038091020161E00E945A
:1004500075038091040161E00E947503809106019B
:1004600060E00E94750364E670E080E090E00E9426
:10047000E3028091080160E00E947503089584E121
:1004800091E00E94A500823761F0833718F48B3623
:10049000B1F70AC0843759F0853789F70E941A02EC
:1004A000EECF0E94F501EBCF0E94AB01E8CF0E9496
:1004B000D001E5CF0F931F9304E111E0C8016FEF66
:1004C0000E94FE00C8010E94A500C8010E94A5006C
:1004D0001F910F91089585EA91E040E855E260E0B0
:1004E00070E00E944E040E945A028091000161E077
:1004F0000E9455038091020161E00E9455038091A2
:10050000040161E00E9455038091060161E00E94B0
:1005100055038091080161E00E9455038091080114
:1005200061E00E94750308950E941B030E946B0204
:100530000E943F02FDCF1F920F920FB60F9211241F
:100540002F933F938F939F93AF93BF9380911C0101
:1005500090911D01A0911E01B0911F0130912001C9
:100560000196A11DB11D232F2D5F2D3720F02D5792
:100570000196A11DB11D2093200180931C01909331
:100580001D01A0931E01B0931F018091180190914D
:100590001901A0911A01B0911B010196A11DB11D75
:1005A0008093180190931901A0931A01B0931B0135
:1005B000BF91AF919F918F913F912F910F900FBE5F
:1005C0000F901F901895EF92FF920F931F937B014E
:1005D0008C018FB7F89440911C0150911D016091DE
:1005E0001E0170911F018FBF2FB7F89480911C01DD
:1005F00090911D01A0911E01B0911F012FBF841B7E
:10060000950BA60BB70BE816F9060A071B0760F750
:100610001F910F91FF90EF900895019759F0FC0101
:10062000EE0FFF1FEE0FFF1F32978FB7F894319731
:10063000F1F78FBF0895789484B5826084BD84B546
:10064000816084BD85B5826085BD85B5816085BDCD
:10065000EEE6F0E0808181608083E1E8F0E0808177
:1006600082608083808181608083E0E8F0E0808127
:1006700081608083E1EBF0E0808184608083E0EB47
:10068000F0E0808181608083EAE7F0E0808184602F
:10069000808380818260808380818160808380818B
:1006A000806880831092C1000895282F30E0C9012E
:1006B00086569F4FFC0194912A573F4FF901849130
:1006C000882391F0E82FF0E0EE0FFF1FE859FF4F6D
:1006D000A591B491662329F48C91909589238C93EC
:1006E00008958C91892B8C930895482F50E0CA016E
:1006F00082559F4FFC012491CA0186569F4FFC01F1
:1007000094914A575F4FFA0134913323D1F1222358
:1007100031F1233021F4809180008F7705C024309F
:1007200031F4809180008F7D8093800018C021304B
:1007300019F484B58F7704C0223021F484B58F7DFD
:1007400084BD0DC0263021F48091B0008F7705C0A4
:10075000273029F48091B0008F7D8093B000E32F83
:10076000F0E0EE0FFF1FEE58FF4FA591B491662306
:1007700029F48C91909589238C9308958C91892BE1
:100780008C930895682F70E0CB0182559F4FFC0138
:100790002491CB0186569F4FFC0144916A577F4FAD
:1007A000FB019491992319F420E030E038C0222312
:1007B00031F1233021F4809180008F7705C02430FF
:1007C00031F4809180008F7D8093800018C02130AB
:1007D00019F484B58F7704C0223021F484B58F7D5D
:1007E00084BD0DC0263021F48091B0008F7705C004
:1007F000273029F48091B0008F7D8093B000892F3D
:1008000090E0880F991F84589F4FFC01A591B491E7
:100810008C9120E030E0842311F021E030E0C90128
:1008200008951F920F920FB60F9211242F933F93AA
:100830004F935F936F937F938F939F93AF93BF93E8
:10084000EF93FF934091C600E091A101F091A201C6
:10085000CF01019660E870E00E94EA059C0180915A
:10086000A3019091A4012817390739F0EF5DFE4FDD
:1008700040833093A2012093A101FF91EF91BF919A
:10088000AF919F918F917F916F915F914F913F9128
:100890002F910F900FBE0F901F9018955F926F923F
:1008A0007F928F929F92AF92BF92CF92DF92EF9200
:1008B000FF920F931F93CF93DF93EC013A014B010B
:1008C000413482E458078FE0680780E078070CF035
:1008D0007FC060E874E88EE190E0A40193010E947B
:1008E0001F062150304040405040CA01B90122E06B
:1008F00030E040E050E00E941F0659016A01A60165
:100900009501209530954095509594E0220F331F26
:10091000441F551F9A95D1F760E074E284EF90E090
:100920000E941F06CA01B9012FEF30E040E050E0FD
:100930000E94CB05A40193010E941F06C9018150AA
:100940009F4F181619061CF4522E5A9403C05524B2
:100950005394521A60E079E08DE390E0A401930192
:100960000E941F062150304040405040CA01B9014A
:1009700022E030E040E050E00E941F0620953095D4
:100980004095509583E0220F331F441F551F8A95D1
:10099000D1F760E074E284EF90E00E941F06CA0184
:1009A000B9012FEF30E040E050E00E94CB05A401F8
:1009B00093010E941F06C90181509F4F1816190606
:1009C0001CF4822F815002C081E0821B851500F546
:1009D000E885F98581E090E00A8802C0880F991FB8
:1009E0000A94E2F7808360E079E08DE390E0A4016F
:1009F00093010E941F062150304040405040CA01E0
:100A0000B90122E030E040E050E00E941F0604C03F
:100A1000E885F98510829501EC81FD813083EE81B6
:100A2000FF812083EA85FB85208141E050E0CA01F7
:100A30000E8402C0880F991F0A94E2F7282B2083A6
:100A4000EA85FB852081CA010F8402C0880F991FA7
:100A50000A94E2F7282B2083EA85FB8580810888A9
:100A600002C0440F551F0A94E2F7842B8083DF9164
:100A7000CF911F910F91FF90EF90DF90CF90BF909B
:100A8000AF909F908F907F906F905F900895FC0142
:100A9000A085B18521898C9190E0022E02C09595A8
:100AA00087950A94E2F780FFF6CF0484F585E02D60
:100AB000608308958EE091E09093A6018093A50154
:100AC00081E291E09093A8018093A70185EC90E0EA
:100AD0009093AA018093A90184EC90E09093AC01DB
:100AE0008093AB0180EC90E09093AE018093AD01D8
:100AF00081EC90E09093B0018093AF0186EC90E0A0
:100B00009093B2018093B10184E08093B30183E0BC
:100B10008093B40187E08093B50185E08093B601AE
:100B200081E08093B70108950F931F93CF93DF93D4
:100B30008C01EB0109C02196D801ED91FC91019047
:100B4000F081E02DC801099568816623A1F7DF9146
:100B5000CF911F910F910895EF92FF920F931F93E2
:100B6000CF93DF938C017B01EA010CC0D7016D911B
:100B70007D01D801ED91FC910190F081E02DC8013B
:100B800009952197209791F7DF91CF911F910F91B0
:100B9000FF90EF900895629FD001739FF001829FB4
:100BA000E00DF11D649FE00DF11D929FF00D839FFC
:100BB000F00D749FF00D659FF00D9927729FB00D99
:100BC000E11DF91F639FB00DE11DF91FBD01CF01AC
:100BD0001124089597FB092E07260AD077FD04D02B
:100BE00049D006D000201AF4709561957F4F089582
:100BF000F6F7909581959F4F0895A1E21A2EAA1BB2
:100C0000BB1BFD010DC0AA1FBB1FEE1FFF1FA217BC
:100C1000B307E407F50720F0A21BB30BE40BF50BB9
:100C2000661F771F881F991F1A9469F76095709542
:100C3000809590959B01AC01BD01CF01089597FB74
:100C4000092E05260ED057FD04D0D7DF0AD0001C90
:100C500038F450954095309521953F4F4F4F5F4F59
:100C60000895F6F790958095709561957F4F8F4F19
:100C70009F4F0895AA1BBB1B51E107C0AA1FBB1FB2
:100C8000A617B70710F0A61BB70B881F991F5A9518
:100C9000A9F780959095BC01CD010895EE0FFF1F37
:0C0CA0000590F491E02D0994F894FFCF2A
:100CAC00080009000A000B000C00000000004705BA
:040CBC009405AC05EA
:00000001FF
